:020000040000fa
:080000000002040000000000f2
:020000040000fa
:04000800c80200002a
:020000040000fa
:04000c00c802000026
:020000040000fa
:04001000c802000022
:020000040000fa
:04001400c80200001e
:020000040000fa
:04001800c80200001a
:020000040000fa
:04001c00c802000016
:020000040000fa
:04002000c802000012
:020000040000fa
:04002400c80200000e
:020000040000fa
:04002800c80200000a
:020000040000fa
:04002c00c802000006
:020000040000fa
:04003000c802000002
:020000040000fa
:04003400c8020000fe
:020000040000fa
:04003800c8020000fa
:020000040000fa
:04003c00c8020000f6
:020000040000fa
:04004000c8020000f2
:020000040000fa
:04004400c8020000ee
:020000040000fa
:04004800c8020000ea
:020000040000fa
:04004c00c8020000e6
:020000040000fa
:04005000c8020000e2
:020000040000fa
:04005400c8020000de
:020000040000fa
:04005800c8020000da
:020000040000fa
:04005c00c8020000d6
:020000040000fa
:04006000c8020000d2
:020000040000fa
:04006400c8020000ce
:020000040000fa
:04006800c8020000ca
:020000040000fa
:04006c00c8020000c6
:020000040000fa
:04007000c8020000c2
:020000040000fa
:04007400c8020000be
:020000040000fa
:04007800c8020000ba
:020000040000fa
:04007c00c8020000b6
:020000040000fa
:04008000c8020000b2
:020000040000fa
:04008400c8020000ae
:020000040000fa
:04008800c8020000aa
:020000040000fa
:04008c00c8020000a6
:020000040000fa
:04009000c8020000a2
:020000040000fa
:04009400c80200009e
:020000040000fa
:04009800c80200009a
:020000040000fa
:04009c00c802000096
:020000040000fa
:0400a000c802000092
:020000040000fa
:0400a400c80200008e
:020000040000fa
:0400a800c80200008a
:020000040000fa
:0400ac00c802000086
:020000040000fa
:0400b000c802000082
:020000040000fa
:0400b400c80200007e
:020000040000fa
:0400b800c80200007a
:020000040000fa
:0400bc00c802000076
:020000040000fa
:0400c000c802000072
:020000040000fa
:0400c400c80200006e
:020000040000fa
:0400c800c80200006a
:020000040000fa
:0400cc00c802000066
:020000040000fa
:0400d000c802000062
:020000040000fa
:0400d400c80200005e
:020000040000fa
:0400d800c80200005a
:020000040000fa
:0400dc00c802000056
:020000040000fa
:0400e000c802000052
:020000040000fa
:0400e400c80200004e
:020000040000fa
:0400e800c80200004a
:020000040000fa
:0400ec00c802000046
:020000040000fa
:0400f000c802000042
:020000040000fa
:0400f400c80200003e
:020000040000fa
:0400f800c80200003a
:020000040000fa
:0400fc00c802000036
:020000040000fa
:04010000c802000031
:020000040000fa
:04010400c80200002d
:020000040000fa
:04010800c802000029
:020000040000fa
:04010c00c802000025
:020000040000fa
:04011000c802000021
:020000040000fa
:04011400c80200001d
:020000040000fa
:04011800c802000019
:020000040000fa
:04011c00c802000015
:020000040000fa
:04012000c802000011
:020000040000fa
:04012400c80200000d
:020000040000fa
:04012800c802000009
:020000040000fa
:04012c00c802000005
:020000040000fa
:04013000c802000001
:020000040000fa
:04013400c8020000fd
:020000040000fa
:04013800c8020000f9
:020000040000fa
:04013c00c8020000f5
:020000040000fa
:04014000c8020000f1
:020000040000fa
:04014400c8020000ed
:020000040000fa
:04014800c8020000e9
:020000040000fa
:04014c00c8020000e5
:020000040000fa
:04015000c8020000e1
:020000040000fa
:04015400c8020000dd
:020000040000fa
:04015800c8020000d9
:020000040000fa
:04015c00c8020000d5
:020000040000fa
:04016000c8020000d1
:020000040000fa
:04016400c8020000cd
:020000040000fa
:04016800c8020000c9
:020000040000fa
:04016c00c8020000c5
:020000040000fa
:04017000c8020000c1
:020000040000fa
:04017400c8020000bd
:020000040000fa
:04017800c8020000b9
:020000040000fa
:04017c00c8020000b5
:020000040000fa
:04018000c8020000b1
:020000040000fa
:04018400c8020000ad
:020000040000fa
:04018800c8020000a9
:020000040000fa
:04018c00c8020000a5
:020000040000fa
:04019000c8020000a1
:020000040000fa
:04019400c80200009d
:020000040000fa
:04019800c802000099
:020000040000fa
:04019c00c802000095
:020000040000fa
:04020800c802000028
:020000040000fa
:04020c00c802000024
:020000040000fa
:04021000c802000020
:020000040000fa
:04021400c80200001c
:020000040000fa
:04021800c802000018
:020000040000fa
:04021c00c802000014
:020000040000fa
:04022000c802000010
:020000040000fa
:04022400c80200000c
:020000040000fa
:04022800c802000008
:020000040000fa
:04022c00c802000004
:020000040000fa
:04023000c802000000
:020000040000fa
:04023400c8020000fc
:020000040000fa
:04023800c8020000f8
:020000040000fa
:04023c00c8020000f4
:020000040000fa
:04024000c8020000f0
:020000040000fa
:04024400c8020000ec
:020000040000fa
:04024800c8020000e8
:020000040000fa
:04024c00c8020000e4
:020000040000fa
:04025000c8020000e0
:020000040000fa
:04025400c8020000dc
:020000040000fa
:04025800c8020000d8
:020000040000fa
:04025c00c8020000d4
:020000040000fa
:04026000c8020000d0
:020000040000fa
:04026400c8020000cc
:020000040000fa
:04026800c8020000c8
:020000040000fa
:04026c00c8020000c4
:020000040000fa
:04027000c8020000c0
:020000040000fa
:04027400c8020000bc
:020000040000fa
:04027800c8020000b8
:020000040000fa
:04027c00c8020000b4
:020000040000fa
:04028000c8020000b0
:020000040000fa
:04028400c8020000ac
:020000040000fa
:04028800c8020000a8
:020000040000fa
:04028c00c8020000a4
:020000040000fa
:04029000c8020000a0
:020000040000fa
:04029400c80200009c
:020000040000fa
:04029800c802000098
:020000040000fa
:04029c00c802000094
:020000040000fa
:0402a000c802000090
:020000040000fa
:0402a400c80200008c
:020000040000fa
:0402a800c802000088
:020000040000fa
:0402ac00c802000084
:020000040000fa
:0402b000c802000080
:020000040000fa
:0402b400c80200007c
:020000040000fa
:0402b800c802000078
:020000040000fa
:0402bc00c802000074
:020000040000fa
:0402c000c802000070
:020000040000fa
:0402c400c80200006c
:020000040000fa
:0402c800c802000068
:020000040000fa
:0402cc00c802000064
:020000040000fa
:0402d000c802000060
:020000040000fa
:0402d400c80200005c
:020000040000fa
:0402d800c802000058
:020000040000fa
:0402dc00c802000054
:020000040000fa
:0402e000c802000050
:020000040000fa
:0402e400c80200004c
:020000040000fa
:0402e800c802000048
:020000040000fa
:0402ec00c802000044
:020000040000fa
:0402f000c802000040
:020000040000fa
:0402f400c80200003c
:020000040000fa
:0402f800c802000038
:020000040000fa
:0402fc00c802000034
:020000040000fa
:04030000c80200002f
:020000040000fa
:04030400c80200002b
:020000040000fa
:04030800c802000027
:020000040000fa
:04030c00c802000023
:020000040000fa
:04031000c80200001f
:020000040000fa
:04031400c80200001b
:020000040000fa
:04031800c802000017
:020000040000fa
:04031c00c802000013
:020000040000fa
:04032000c80200000f
:020000040000fa
:04032400c80200000b
:020000040000fa
:04032800c802000007
:020000040000fa
:04032c00c802000003
:020000040000fa
:04033000c8020000ff
:020000040000fa
:04033400c8020000fb
:020000040000fa
:04033800c8020000f7
:020000040000fa
:04033c00c8020000f3
:020000040000fa
:04034000c8020000ef
:020000040000fa
:04034400c8020000eb
:020000040000fa
:04034800c8020000e7
:020000040000fa
:04034c00c8020000e3
:020000040000fa
:04035000c8020000df
:020000040000fa
:04035400c8020000db
:020000040000fa
:04035800c8020000d7
:020000040000fa
:04035c00c8020000d3
:020000040000fa
:04036000c8020000cf
:020000040000fa
:04036400c8020000cb
:020000040000fa
:04036800c8020000c7
:020000040000fa
:04036c00c8020000c3
:020000040000fa
:04037000c8020000bf
:020000040000fa
:04037400c8020000bb
:020000040000fa
:04037800c8020000b7
:020000040000fa
:04037c00c8020000b3
:020000040000fa
:04038000c8020000af
:020000040000fa
:04038400c8020000ab
:020000040000fa
:04038800c8020000a7
:020000040000fa
:04038c00c8020000a3
:020000040000fa
:04039000c80200009f
:020000040000fa
:04039400c80200009b
:020000040000fa
:04039800c802000097
:020000040000fa
:04039c00c802000093
:020000040000fa
:10040000cf8320000e7f24000e0188000000000032
:10041000000020000000e000020032000001200087
:1004200020028800140007005b0007000000e000c5
:1004300003003a00c02a210001002000020037001a
:100440000000200001002000810f70000100320038
:1004500014000700000020000000e000020032004d
:100460000000020000000000201002000000000058
:100470000040da000000fe004440a900a015200062
:100480000000e0000300320000002000a00188000e
:100490004440a800000006008a1f78008b1f7800e7
:1004a0000000060091018800800478000000eb0045
:1004b0001a003700e284440032a0b4009905ba0063
:1004c000e284440032a0b4009906ba00e2844400f9
:1004d00032a0b4000006eb00476fde00fd07b2005b
:1004e000636ce10003003a00ebff07000000eb0043
:1004f0000a003700606ce10004003a00005deb0088
:100500008b05e900fdff3e00040037006168e10053
:10051000010032000086eb000b00070019c7ba008b
:100520001905ba000e04e00003003a000a00e000da
:10053000e0ff3a0000000600fe07b2009e018800be
:100540008a047800f5ff3700395dba008b05e900b1
:100550000c003200295dba008b05e900080032006a
:100560000c00e00003003a00e284440032a0b40032
:10057000f5ff370019ddba008b05e900faff3a00f4
:100580008904e800e184440032a0b40000000600c1
:100590000040da000000fe00000005006022b80004
:1005a000060220000000d0008180d2000482d20028
:1005b0008582d2000000a0000202520083825a000d
:1005c000030031000202420083824a000000a100c1
:0c05d0000603e900f3ff3a0000000600fb
:020000040000fa
:1005dc00000000000000000000000000005f0000b0
:1005ec0000000000000700000007000000140000dd
:1005fc007f1400007f140000242a00007f2a0000d2
:10060c001223000013080000646200003649000049
:10061c0055220000500000000503000000000000ff
:10062c00001c0000224100000000000041220000dc
:10063c001c000000140800003e0800001408000014
:10064c00083e0000080800000050000030000000c8
:10065c000008000008080000080800000060000006
:10066c0060000000002000001008000004020000e0
:10067c003e510000494500003e000000427f000052
:10068c00400000004261000051490000462100007a
:10069c00414500004b31000018140000127f00008f
:1006ac001027000045450000453900003c4a000079
:1006bc0049490000300100007109000005030000e9
:1006cc00364900004949000036060000494900003f
:1006dc00291e00000036000036000000000000005b
:1006ec0056360000000000000814000022410000f3
:1006fc000014000014140000141400000041000049
:10070c00221400000802000001510000090600003c
:10071c0032490000794100003e7e000011110000ba
:10072c00117e00007f49000049490000363e000060
:10073c0041410000412200007f41000041220000a5
:10074c001c7f000049490000494100007f0900005e
:10075c0009090000013e000041490000497a0000ef
:10076c007f080000080800007f000000417f0000a7
:10077c004100000020400000413f0000017f0000cc
:10078c0008140000224100007f400000404000009f
:10079c00407f0000020c0000027f00007f0400007c
:1007ac00081000007f3e000041410000413e000067
:1007bc007f09000009090000063e000041510000bd
:1007cc00215e00007f090000192900004646000048
:1007dc004949000049310000010100007f0100007f
:1007ec00013f000040400000403f00001f2000007f
:1007fc00402000001f3f000040380000403f000038
:10080c006314000008140000630700000870000067
:10081c00080700006151000049450000430000003a
:10082c007f4100004100000002040000081000009d
:10083c0020000000414100007f0000000402000085
:10084c000102000004400000404000004040000055
:10085c0050720000657300007320000061200000de
:10086c0062750000747400006f6e000000310000af
:10087c00003200000033000000340000003500009e
:04088c000000000068
:020000040000fa
:100890000800fa002007980031079800be00900079
:1008a000800720000088b900000178002e00900029
:1008b0006000b9000000780000014100ae00900027
:1008c000800720000008b800010141008200780084
:1008d000008fbe001e00be00c002b1000180b1004a
:1008e000008fbe001e00be00e00f5000e08f5800d9
:1008f00009003400040037001e00be006b005000e9
:10090000e0805800008fbe001e00be00e00f5000c7
:10091000e08f5800f8ff3c000080fa00000006005d
:100920000400fa00100798000f00370040c0b30021
:10093000004f7800030037009001200001002000e4
:10094000d3ff07001e4078008080fb008100ea0092
:10095000cf08de00814078000040e900004f7800b9
:100960000104e000f4ff3a001e00900000f0a70030
:100970000000ea000000ea004f00de0000407800be
:100980009e0090008100e900110798000004e0003b
:10099000e6ff3a000080fa00000006000200fa00bc
:1009a000004f78001e80fb0040308800113080002e
:1009b00000002800008060000000e000fbff3a001b
:1009c0000080fa00000006000200fa0040308000bb
:1009d000004f780011308000000028000080600087
:1009e0000000e000fbff3a0001e6a9004030800073
:1009f000004f780001e6a8001e4078000080fa0051
:100a0000000006000200fa0040308000004f78002d
:100a10001130800000002800008060000000e0002d
:100a2000fbff3a001e4078000080fa00000006003c
:100a30000400fa0041308000010f78001e007800a9
:100a40004800dd00000f7800113080000000280011
:100a5000008060000000e000fbff3a0040308000b2
:100a6000204798002e4090000080fb001e0f600081
:100a70001130800000002800008060000000e000cd
:100a8000fbff3a001e0078000080fa00000006001c
:100a90000400fa003005200001002000008fbe0095
:100aa000dc42a900d842a900c9e2a900dd62a80081
:100ab000d962a9000226ef000c26ef000026ef0005
:100ac00011308000f0cf2f00008060000090a00067
:100ad0001030880011308000f0f32f00008060009b
:100ae0001030880050062000010020001e01be00ca
:100af000800f5100818f59000600360011308000b0
:100b000030fc2f00008060000020a0001030880022
:100b10001500370050062000010020001e01be0015
:100b2000800f5100818f59000f003e001e01be0052
:100b3000600620000100200098fe070000407800b9
:100b40000040e8006f4060000080fb006f00600024
:100b50004200dd001230800031fc2f008100610076
:100b600001007000103088001e01be00e00020006f
:100b700001002000800f5100818f590005003600d0
:100b800011308000c0ff2f0000806000103088000e
:100b9000140037001e01be00e0002000010020000c
:100ba000800f5100818f59000e003e001e01be00d3
:100bb000f00020000100200078fe070000407800cf
:100bc0000040e800634060000080fb0063006000bc
:100bd00012308000c1ff2f00810061000100700011
:100be000103088000346a9000126a80000308000cc
:100bf0004900de00614060000080fb006100600091
:100c00004800dd00013080000180a100010070007b
:100c10000030880001e6a800dc42a8004001200066
:100c2000010020001aff07000080fa000000060003
:100c30001e00fa003005200001002000008fbe00d9
:100c4000dc42a900d842a900c9e2a900dd62a800df
:100c5000d962a9000226ef000c26ef000026ef0063
:100c600011308000f0cf2f00008060000090a000c5
:100c70001030880011308000f0f32f0000806000f9
:100c80001030880050062000010020001e01be0028
:100c9000800f5100818f590006003600113080000e
:100ca00030fc2f00008060000020a0001030880081
:100cb0001500370050062000010020001e01be0074
:100cc000800f5100818f59000f003e001e01be00b1
:100cd000600620000100200030fe07000040780080
:100ce0000040e8006f4060000080fb006f00600083
:100cf0004200dd001230800031fc2f0081006100d5
:100d000001007000103088001e01be00e0002000cd
:100d100001002000800f5100818f5900050036002e
:100d200011308000c0ff2f0000806000103088006c
:100d3000140037001e01be00e0002000010020006a
:100d4000800f5100818f59000e003e001e01be0031
:100d5000f00020000100200010fe07000040780095
:100d60000040e800634060000080fb00630060001a
:100d700012308000c1ff2f0081006100010070006f
:100d8000103088000346a9000126a800003080002a
:100d90004900de00614060000080fb0061006000ef
:100da0004800dd00013080000180a10001007000da
:100db0000030880001e6a800dc42a80040012000c5
:100dc00001002000b2fe0700dd62a900cde2a9000b
:100dd000e0cab300404798004e4090000080fb00fe
:100de0004030880011308000000028000080600042
:100df0000000e000fbff3a00b0cdb3005047980080
:100e00005e4090000080fb00403088001130800080
:100e100000002800008060000000e000fbff3a00b6
:100e200030c2b300604798006e4090000080fb0025
:100e300040308800113080000000280000806000f1
:100e40000000e000fbff3a0090cdb300704798002f
:100e50007e4090000080fb00403088001130800010
:100e600000002800008060000000e000fbff3a0066
:100e700020c2b300004f98000e4890000080fb0095
:100e800040308800113080000000280000806000a1
:100e90000000e000fbff3a0010cab300104f9800ba
:100ea0001e4890000080fb00403088001130800018
:100eb00000002800008060000000e000fbff3a0016
:100ec00080ccb300204f98002e4890000080fb009b
:100ed0004030880011308000000028000080600051
:100ee0000000e000fbff3a00a0cdb300304f9800b7
:100ef0003e4890000080fb004030880011308000a8
:100f000000002800008060000000e000fbff3a00c5
:100f100020c1b300404f98004e4890000080fb0075
:100f20004030880011308000000028000080600000
:100f30000000e000fbff3a0080cab300504f980069
:100f40005e4890000080fb00403088001130800037
:100f500000002800008060000000e000fbff3a0075
:100f6000f0c3b300604f98006e4890000080fb0013
:100f700040308800113080000000280000806000b0
:100f80000000e000fbff3a0050cdb300704f980026
:100f90007e4890000080fb004030880011308000c7
:100fa00000002800008060000000e000fbff3a0025
:100fb00000cab300005798000e5090000080fb005c
:100fc0004030880011308000000028000080600060
:100fd0000000e000fbff3a0010c8b3001057980073
:100fe0001e5090000080fb004030880011308000cf
:100ff00000002800008060000000e000fbff3a00d5
:1010000000c6b300205798002e5090000080fb00cf
:10101000403088001130800000002800008060000f
:101020000000e000fbff3a0030cdb30030579800dd
:101030003e5090000080fb0040308800113080005e
:1010400000002800008060000000e000fbff3a0084
:101050000040eb00405798004e5090000080fb008d
:1010600040308800113080000000280000806000bf
:101070000000e000fbff3a0060cab3005057980040
:101080005e5090000080fb004030880011308000ee
:1010900000002800008060000000e000fbff3a0034
:1010a000d0cab300605798006e5090000080fb00db
:1010b000403088001130800000002800008060006f
:1010c0000000e000fbff3a00b0c8b3007057980082
:1010d0007e5090000080fb0040308800113080007e
:1010e00000002800008060000000e000fbff3a00e4
:1010f000f0cab300005f98000e5890000080fb001b
:10110000403088001130800000002800008060001e
:101110000000e000fbff3a006009200000fe07002d
:1011200040cab300105f98001e5890000080fb007a
:1011300040308800113080000000280000806000ee
:101140000000e000fbff3a0000c4b300205f9800fd
:101150002e5890000080fb00403088001130800045
:1011600000002800008060000000e000fbff3a0063
:1011700020c0b300305f98003e5890000080fb0014
:10118000403088001130800000002800008060009e
:101190000000e000fbff3a0000c1b300405f980090
:1011a0004e5890000080fb004030880011308000d5
:1011b00000002800008060000000e000fbff3a0013
:1011c00010002000d6fd0700dd62a800cde2a800d7
:1011d0000080fa00000006001400fa00000f9800da
:1011e000110f98001e089000e70f500003003c000c
:1011f00000cbb300004f7800290037001e08900094
:10120000ef0f500003003c0010cbb300004f7800fc
:10121000230037001e089000f70f500003003c0029
:1012200020cbb300004f78001d0037001e0890004f
:10123000ff0f500003003c0030cbb300004f78009c
:10124000170037009e08900070022000808f500029
:1012500003003c0040cbb300004f78001000370083
:101260009e089000f0022000808f500003003c0098
:1012700050cbb300004f7800090037009e08900063
:1012800070032000808f500003003c0060cbb3004f
:10129000004f78000200370070cbb300004f780099
:1012a0000e0890000040780000c0e8002047980039
:1012b0002e4090006f406000304798002e40900014
:1012c0000080fb004400de00004078000044a000e5
:1012d000404798001e0890004380de002047980099
:1012e0002e4090004300dd00204798001e0890002b
:1012f000804078002e40900000c0500020479800a9
:101300002e4090000080fb00110020000008dd004e
:1013100050479800dd62a900cde2a9009e40780008
:10132000614798006e4090000080fb0040308800cc
:101330001130800000002800008060000000e00004
:10134000fbff3a00be409000714798007e4090003d
:101350000080fb0040308800113080000000280031
:10136000008060000000e000fbff3a00ce409000eb
:10137000014f98000e4890000080fb00403088002c
:101380001130800000002800008060000000e000b4
:10139000fbff3a00cde2a80040308000104f9800db
:1013a0001130800000002800008060000000e00094
:1013b000fbff3a001e489000104798004030800024
:1013c000204f98001130800000002800008060004d
:1013d0000000e000fbff3a002e4890001047980004
:1013e00040308000304f980011308000000028000d
:1013f000008060000000e000fbff3a003e489000e3
:10140000104798000cc8bf000004e000050032003f
:101410009e4090005e40900000c070001047980011
:10142000050037005e40900080c0ea001e4090003a
:1014300000c0600010479800cde2a9009e407800ef
:10144000414f98004e4890000080fb0040308800db
:101450001130800000002800008060000000e000e3
:10146000fbff3a00be409000514f98005e4890004c
:101470000080fb0040308800113080000000280010
:10148000008060000000e000fbff3a00ce409000ca
:10149000614f98006e4890000080fb00403088004b
:1014a0001130800000002800008060000000e00093
:1014b000fbff3a00cde2a8009e409000714f9800db
:1014c0007e4890000080fb00403088001130800092
:1014d00000002800008060000000e000fbff3a00f0
:1014e000dd62a8000080fa00000006001000fa008b
:1014f00060079800710798007e009000e70f500089
:1015000003003c0000cbb300004f780029003700f7
:101510007e009000ef0f500003003c0010cbb300a2
:10152000004f7800230037007e009000f70f500036
:1015300003003c0020cbb300004f78001d003700b3
:101540007e009000ff0f500003003c0030cbb30042
:10155000004f780017003700fe0090007002200056
:10156000808f500003003c0040cbb300004f780058
:1015700010003700fe009000f0022000808f500025
:1015800003003c0050cbb300004f78000900370047
:10159000fe00900070032000808f500003003c008c
:1015a00060cbb300004f78000200370070cbb3006f
:1015b000004f78006e0090000040780000c0e80006
:1015c000104798001e4090006f4060002047980030
:1015d0001e4090000080fb004400de0000407800c8
:1015e0000044a000304798007e0090004380de0059
:1015f000404798004e4090004300dd00404798006f
:101600007e009000804078004e40900000c0500066
:10161000404798004e4090000080fb0011002000e1
:101620000008dd0050479800dd62a900cde2a90066
:101630009e407800714798007e4090000080fb003b
:1016400040308800113080000000280000806000d9
:101650000000e000fbff3a00ae409000014f980010
:101660000e4890000080fb00403088001130800060
:1016700000002800008060000000e000fbff3a004e
:10168000be409000114f98001e4890000080fb0063
:101690004030880011308000000028000080600089
:1016a0000000e000fbff3a00cde2a80040308000df
:1016b000204f98001130800000002800008060005a
:1016c0000000e000fbff3a002e48900060479800c1
:1016d00040308000304f980011308000000028001a
:1016e000008060000000e000fbff3a0001e6a90076
:1016f00040308000304f980001e6a8003e4890003e
:1017000060479800dd62a800ee4090005e409000c7
:1017100000c060000080fa00000006000600fa0029
:10172000dd62a90000cbb300004f78003500370020
:10173000cde2a9009e407800214798002e409000fd
:101740000080fb004030880011308000000028003d
:10175000008060000000e000fbff3a000040eb006a
:10176000304798003e4090000080fb0040308800e9
:101770001130800000002800008060000000e000c0
:10178000fbff3a0000c1b300404798004e40900074
:101790000080fb00403088001130800000002800ed
:1017a000008060000000e000fbff3a00cde2a800ee
:1017b0000040eb00104798000d0037000cc8bf0038
:1017c000504798005e4090000080fb004030880049
:1017d0001130800000002800008060000000e00060
:1017e000fbff3a001e4090000040e80010479800c0
:1017f0009e40900030c8b30080cf5000efff36000d
:101800001e4fe80070cbb3009e40780080cf5000a0
:10181000c7ff3600dd62a8000080fa000000060065
:101820000c00fa003007980041079800224f9800fa
:101830002e489000ff4f500004003400ae48900046
:10184000f0c5b30080cf50000200340000c2b300e6
:10185000204f9800e22e28002e4890000000fb0048
:101860006500b90000007800000ab10000004100e6
:10187000100798000040eb00004f78002000370070
:101880001e80fb009e009000008040009040780089
:10189000414798000040eb001047980014003700c3
:1018a0004e4090008080fb001e4090000080fb00b6
:1018b0000088de0061006000004078000004e00065
:1018c000080032001e4090008080fb004e00900017
:1018d000808040001e81fb003e009000000041001f
:1018e0003dfe07001e4090000040e80010479800b1
:1018f0001e409000e64f5000e9ff36001e4fe80002
:101900001e407800e44f5000ddff36000080fa00f2
:10191000000006000800fa00100798002107980050
:10192000320798009e009000010f78000b003700ee
:101930003e0090001040780000417800ae0090001a
:101940001e007800b6ff07009e007800668f4000fa
:101950003e0090000000e800300798003e00900034
:10196000104078000004e000f1ff3a000080fa0027
:10197000000006000400fa00100798000040eb0089
:10198000004f7800010037001e4fe8001e00900055
:10199000104078000080fb000000ea004f00de00ed
:1019a000004078009e0090008100e8001107980038
:1019b0000004e000f4ff3a001e4078000004e0005c
:1019c000060032001e4078006600b9000000780072
:1019d000004078000040e900010037000040eb00c3
:1019e0000080fa00000006000000fa00400e20000f
:1019f000001988002223ef0050f0210020198800f0
:101a00002823ef003023ef0021e3a80000000000ae
:101a100000198000610060000000e000fcff32005f
:101a2000001880000040880021e3a9000080fa002f
:101a3000000006000200fa0010f0210040168800a5
:101a400061198000e00f2e0000806000601988009e
:101a5000c0072000e0198800f1198000f0cf2f00a6
:101a6000008060000090a000f0198800f11980004b
:101a7000f03f200000806000f01988002023ef0074
:101a800080002000401988003023ef0001198000f9
:101a9000f0cf2f0000806000001988002000200097
:101aa000201988002223ef0021e3a8003de3a800cd
:101ab0000040eb00004f78000d0037001e80fb0057
:101ac0008000400080822000008040000150200003
:101ad000010878001e80fb00800040002083200069
:101ae0000080400051062000010878001e4fe800e9
:101af0001e407800e44f5000f0ff36000368ef000e
:101b000000cab30002e8b7000080fa000000060037
:101b10000600fa0040198000200798002023ef00fb
:101b20003023ef0020002000201988002223ef003e
:101b300021e3a8000040eb00004f780003013700cc
:101b400003c8bf000080fb00680040004019880007
:101b500085a0a9002003a9002023a8000000000000
:101b60000000000000000000000000000000000075
:101b70000000000000000000000000003d23a8005d
:101b80000000000000000000000000000000000055
:101b9000000000003d23a90000000000000000003c
:101ba00000000000000000000000000085a0a90067
:101bb0002023a90000000000210480000000220072
:101bc000008060000000e000fbff32001002800097
:101bd0004500de00674060000080fb0010079800b1
:101be00011028000000e2000010070001002880029
:101bf0000000000085a0a9002023a8003c23a90024
:101c00003c03a8000040eb00104798000300370099
:101c10001e4090000040e800104798009e40900051
:101c200090c5b30080cf5000f9ff36003c03a900f7
:101c30001e00900000407800674060000080fb00bc
:101c4000670060004500dd0012028000f1f12f0006
:101c50008100610001007000100288000000000097
:101c600085a0a9002023a900000000002104800015
:101c700000002200008060000000e000fbff320056
:101c8000001880002040880085a0a9002023a8001b
:101c90000000000000000000000000000000000044
:101ca0000000000000000000000000000000000034
:101cb0003d23a8000000000000000000000000001c
:101cc00000000000000000003d23a900000000000b
:101cd00000000000000000000000000085a0a90036
:101ce0002023a90000000000210480000000220041
:101cf000008060000000e000fbff320085a0a9002a
:101d00002003a900204080004400dd00304088000e
:101d100003c8bf000080fb0080004000e08120007d
:101d200000804000100078004400de004040880041
:101d300003c8bf000080fb0031408000000140006c
:101d400040812000000041000108780002c8bf0067
:101d50000004e0001200320002c8bf000040e900a9
:101d600002e8b70003c8bf000080fb0031408000dc
:101d700000014000e08120000000410001087800df
:101d800003c8bf000040e80003e8b70003c8bf0075
:101d9000e54f500071003a000368ef007000370013
:101da00003c8bf000080fb0080004000e0812000ed
:101db000008040009000780003c8bf000080fb0056
:101dc00000014000808220000000410010007800e7
:101dd0008080500003c8bf000080fb00000140006d
:101de0002083200000004100100078008080400027
:101df00030408000808f50000600310003c8bf00d3
:101e00000080fb00e18020000041eb008270780040
:101e10001500370003c8bf000080fb0080004000b1
:101e2000e0812000008040009000780003c8bf00df
:101e30000080fb0000014000808220000000410083
:101e4000100078008080500030408000808f50006b
:101e50000500360003c8bf000080fb00e1802000c1
:101e600012c0b3008270780003c8bf000080fb007e
:101e700080004000e0812000008040009000780059
:101e800030408000808f50000700310003c8bf0041
:101e90000080fb003140800000014000e081200014
:101ea000000041000108780003c8bf000004e00002
:101eb00009003a0051408000f0032000808f50005c
:101ec00004003e00504080000000e80050408800c0
:101ed000010037000a28ef00514080000004200074
:101ee000808f500011003a0003c8bf000080fb0043
:101ef00031802000914078008180fb00018140000a
:101f0000e181200081004100110178002340800020
:101f1000414080008180510081004100000140006b
:101f2000e0812000000041000108780003c8bf00e4
:101f30000040e80003e8b70003c8bf00e54f5000c9
:101f400001003a000368ef001e4fe8001e407800d1
:101f5000e44f5000fafe3600010037000000000098
:101f6000a1fe07002e009000401988000080fa00b2
:101f7000000006000400fa00100798002108800005
:101f8000000320000100700020088800f0022000fb
:101f9000100888000021ef0005e1a8000000eb0018
:101fa000000f7800070037000000000020048000c8
:101fb000680060000000e000fcff32008460a900bf
:101fc0001e0fe8001e0090009e007800808f5000d9
:101fd000f5ff390005e1a9000080fa0000000600c5
:101fe0000800fa00300798003e00900061fe0700ec
:101ff000004f78001e80fb00010820000080500088
:10200000cf00de00008040000080d1001007980063
:10201000c0012000200798000c68ef00bffd0700fa
:1020200000c0eb000ce8b7003e019000ae0090004d
:102030001e00900037fe07000080fa000000060036
:102040001400fa0020302300103a88004427ef00e3
:1020500078fe0700d1000700a0002000300798009c
:102060000000eb00100f98001e089000000f980071
:102070000e089000700798007e009000600798009e
:102080006e0090005007980000c0eb00004f7800f1
:10209000600020004007980007010700e4fa0700ed
:1020a0000c68ef009dfd070000c0eb000ce8b700d6
:1020b000e2422800c10120004001200015fe070077
:1020c00093fe07000040eb00104798003a003700ed
:1020d0001e4090000080fb00e180200061407800fd
:1020e0000004e0000b0032001e4090000080fb0066
:1020f0008000400081004700d10090008100e8008e
:1021000000004000000047006a004000010878001d
:102110000a0037001e4090000080fb008000400055
:1021200081004700d10090008100e90000004000dc
:10213000000047006a004000010878001e4090003f
:102140000080fb00000040000000470050009000ad
:102150000000e00007003d001e4090000080fb00f2
:1021600000004000000047006a0040008000eb00d3
:10217000010878001e4090000080fb000000400035
:102180000000470050009000fe0f50000700340090
:102190001e4090000080fb0000004000000047004f
:1021a0006a004000e1012000010878001e40900014
:1021b0000040e800104798001e409000e44f500097
:1021c000c3ff3600ce0090001107980000c0eb005e
:1021d000404798000040eb0050479800130037003c
:1021e0005e4090000080fb000000400000004700bf
:1021f000d00090001e009000808f50000800340036
:102200005e4090000080fb0000004000000047009e
:10221000d000900011079800de40900041479800e0
:102220005e4090000040e800504798005e409000fb
:10223000e44f5000eaff36004e409000e14f40006e
:10224000250032004e4090009e4f50002200320088
:102250004e4090000080fb00e20f50001200320060
:10226000e20f500005003c000000e00008003200d2
:10227000e10f50000900320014003700e30f500056
:102280000c003200e40f50000d0032000f00370048
:10229000d043280052ff07000c003700f04328000d
:1022a0004fff070009003700104428004cff0700cb
:1022b000060037003044280049ff070003003700bc
:1022c0005044280046ff070000000000ce40900068
:1022d000014f7800050037004e409000e14f40006c
:1022e00002003a0000c0eb00004f78003e00900072
:1022f00020ff070072ff37000400fa00004f78004b
:1023000011479800224798001e4078000004e00022
:10231000060032001e80fb000080ea00800078008a
:10232000f00f200000806000010037000010200046
:10233000a00c88001e4090000004e000070032005e
:102340001e4090000080fb000080ea0080007800c2
:10235000f00f200000806000010037000010200016
:10236000f00c88002e4090000004e00007003200ce
:102370002e4090000080fb000080ea008000780082
:10238000f00f2000008060000100370000102000e6
:10239000400d88000080fa00000006000000fa00ee
:1023a00081368000f00f2c0080806000002021002a
:1023b0000100700080368800803680004800de0012
:1023c000f043b2008080fb00f0032000008060003a
:1023d0005236800001fc2f00810061000100700076
:1023e00050368800d1368000f00f2c0080806000cd
:1023f0000030210001007000d0368800d036800007
:102400004800de00f043b2008080fb00f0032000b3
:10241000008060004800dd0092368000f10f2c0043
:10242000810061000100700090368800d136800084
:1024300000fc2f00008060004001b300d03688000f
:10244000d036800000407800f043b2008080fb006e
:10245000f0032000008060004800dd00a23680000c
:10246000f10f2c008100610001007000a03688008f
:10247000c826ef000080fa00000006000000fa0005
:102480001021ef00a421ef00200d8000d00c880067
:10249000d00c8000800c8800e882a800e8a2a80088
:1024a000f102a800f122a800f0c2a800f0e2a80002
:1024b0000080fa00000006000000fa00000320007f
:1024c00080088800f00f20006008880000102000bd
:1024d000a00c88009621ef00c0002000900c88001e
:1024e00070002000800c880000102000f00c880094
:1024f000a021ef00c0002000e00c88007000200048
:10250000d00c880000102000400d8800aa21ef00a8
:10251000c0002000300d880070002000200d8800d1
:10252000e882a900e8a2a900f102a900f122a9000d
:10253000f0c2a900f0e2a900000320007017880093
:10254000003c2000b01788000000280080088800a8
:082550000080fa000000060003
:020000040000fa
:102558000c08000002000000000000000e08000047
:102568002e00000000000000000800000c00000021
:0825780000000000000000005b
:020000040000fa
:020000040005f5
:0457f400ffff0000b3
:020000040000fa
:020000040005f5
:0457f8005e2300002c
:020000040000fa
:020000040005f5
:0457fc007f3e0000ec
:00000001FF
